{
  "_format": "hh-sol-artifact-1",
  "contractName": "HM",
  "sourceName": "contracts/HM.sol",
  "abi": [
    {
      "inputs": [],
      "stateMutability": "nonpayable",
      "type": "constructor"
    },
    {
      "anonymous": false,
      "inputs": [
        {
          "indexed": true,
          "internalType": "address",
          "name": "owner",
          "type": "address"
        },
        {
          "indexed": true,
          "internalType": "address",
          "name": "approved",
          "type": "address"
        },
        {
          "indexed": true,
          "internalType": "uint256",
          "name": "tokenId",
          "type": "uint256"
        }
      ],
      "name": "Approval",
      "type": "event"
    },
    {
      "anonymous": false,
      "inputs": [
        {
          "indexed": true,
          "internalType": "address",
          "name": "owner",
          "type": "address"
        },
        {
          "indexed": true,
          "internalType": "address",
          "name": "operator",
          "type": "address"
        },
        {
          "indexed": false,
          "internalType": "bool",
          "name": "approved",
          "type": "bool"
        }
      ],
      "name": "ApprovalForAll",
      "type": "event"
    },
    {
      "anonymous": false,
      "inputs": [
        {
          "indexed": true,
          "internalType": "address",
          "name": "previousOwner",
          "type": "address"
        },
        {
          "indexed": true,
          "internalType": "address",
          "name": "newOwner",
          "type": "address"
        }
      ],
      "name": "OwnershipTransferred",
      "type": "event"
    },
    {
      "anonymous": false,
      "inputs": [
        {
          "indexed": true,
          "internalType": "address",
          "name": "from",
          "type": "address"
        },
        {
          "indexed": true,
          "internalType": "address",
          "name": "to",
          "type": "address"
        },
        {
          "indexed": true,
          "internalType": "uint256",
          "name": "tokenId",
          "type": "uint256"
        }
      ],
      "name": "Transfer",
      "type": "event"
    },
    {
      "inputs": [
        {
          "internalType": "address",
          "name": "to",
          "type": "address"
        },
        {
          "internalType": "uint256",
          "name": "tokenId",
          "type": "uint256"
        }
      ],
      "name": "approve",
      "outputs": [],
      "stateMutability": "nonpayable",
      "type": "function"
    },
    {
      "inputs": [
        {
          "internalType": "address",
          "name": "owner",
          "type": "address"
        }
      ],
      "name": "balanceOf",
      "outputs": [
        {
          "internalType": "uint256",
          "name": "",
          "type": "uint256"
        }
      ],
      "stateMutability": "view",
      "type": "function"
    },
    {
      "inputs": [],
      "name": "claim",
      "outputs": [],
      "stateMutability": "nonpayable",
      "type": "function"
    },
    {
      "inputs": [
        {
          "internalType": "uint256",
          "name": "tokenId",
          "type": "uint256"
        }
      ],
      "name": "getApproved",
      "outputs": [
        {
          "internalType": "address",
          "name": "",
          "type": "address"
        }
      ],
      "stateMutability": "view",
      "type": "function"
    },
    {
      "inputs": [
        {
          "internalType": "uint256",
          "name": "tokenId",
          "type": "uint256"
        }
      ],
      "name": "getHungMan",
      "outputs": [
        {
          "internalType": "string",
          "name": "",
          "type": "string"
        }
      ],
      "stateMutability": "view",
      "type": "function"
    },
    {
      "inputs": [
        {
          "internalType": "uint256",
          "name": "tokenId",
          "type": "uint256"
        }
      ],
      "name": "getRarelity",
      "outputs": [
        {
          "internalType": "string",
          "name": "",
          "type": "string"
        }
      ],
      "stateMutability": "view",
      "type": "function"
    },
    {
      "inputs": [
        {
          "internalType": "address",
          "name": "owner",
          "type": "address"
        },
        {
          "internalType": "address",
          "name": "operator",
          "type": "address"
        }
      ],
      "name": "isApprovedForAll",
      "outputs": [
        {
          "internalType": "bool",
          "name": "",
          "type": "bool"
        }
      ],
      "stateMutability": "view",
      "type": "function"
    },
    {
      "inputs": [],
      "name": "name",
      "outputs": [
        {
          "internalType": "string",
          "name": "",
          "type": "string"
        }
      ],
      "stateMutability": "view",
      "type": "function"
    },
    {
      "inputs": [],
      "name": "owner",
      "outputs": [
        {
          "internalType": "address",
          "name": "",
          "type": "address"
        }
      ],
      "stateMutability": "view",
      "type": "function"
    },
    {
      "inputs": [
        {
          "internalType": "uint256",
          "name": "tokenId",
          "type": "uint256"
        }
      ],
      "name": "ownerClaim",
      "outputs": [],
      "stateMutability": "nonpayable",
      "type": "function"
    },
    {
      "inputs": [
        {
          "internalType": "uint256",
          "name": "tokenId",
          "type": "uint256"
        }
      ],
      "name": "ownerOf",
      "outputs": [
        {
          "internalType": "address",
          "name": "",
          "type": "address"
        }
      ],
      "stateMutability": "view",
      "type": "function"
    },
    {
      "inputs": [],
      "name": "renounceOwnership",
      "outputs": [],
      "stateMutability": "nonpayable",
      "type": "function"
    },
    {
      "inputs": [
        {
          "internalType": "address",
          "name": "from",
          "type": "address"
        },
        {
          "internalType": "address",
          "name": "to",
          "type": "address"
        },
        {
          "internalType": "uint256",
          "name": "tokenId",
          "type": "uint256"
        }
      ],
      "name": "safeTransferFrom",
      "outputs": [],
      "stateMutability": "nonpayable",
      "type": "function"
    },
    {
      "inputs": [
        {
          "internalType": "address",
          "name": "from",
          "type": "address"
        },
        {
          "internalType": "address",
          "name": "to",
          "type": "address"
        },
        {
          "internalType": "uint256",
          "name": "tokenId",
          "type": "uint256"
        },
        {
          "internalType": "bytes",
          "name": "_data",
          "type": "bytes"
        }
      ],
      "name": "safeTransferFrom",
      "outputs": [],
      "stateMutability": "nonpayable",
      "type": "function"
    },
    {
      "inputs": [
        {
          "internalType": "address",
          "name": "operator",
          "type": "address"
        },
        {
          "internalType": "bool",
          "name": "approved",
          "type": "bool"
        }
      ],
      "name": "setApprovalForAll",
      "outputs": [],
      "stateMutability": "nonpayable",
      "type": "function"
    },
    {
      "inputs": [
        {
          "internalType": "bytes4",
          "name": "interfaceId",
          "type": "bytes4"
        }
      ],
      "name": "supportsInterface",
      "outputs": [
        {
          "internalType": "bool",
          "name": "",
          "type": "bool"
        }
      ],
      "stateMutability": "view",
      "type": "function"
    },
    {
      "inputs": [],
      "name": "symbol",
      "outputs": [
        {
          "internalType": "string",
          "name": "",
          "type": "string"
        }
      ],
      "stateMutability": "view",
      "type": "function"
    },
    {
      "inputs": [
        {
          "internalType": "uint256",
          "name": "index",
          "type": "uint256"
        }
      ],
      "name": "tokenByIndex",
      "outputs": [
        {
          "internalType": "uint256",
          "name": "",
          "type": "uint256"
        }
      ],
      "stateMutability": "view",
      "type": "function"
    },
    {
      "inputs": [
        {
          "internalType": "address",
          "name": "owner",
          "type": "address"
        },
        {
          "internalType": "uint256",
          "name": "index",
          "type": "uint256"
        }
      ],
      "name": "tokenOfOwnerByIndex",
      "outputs": [
        {
          "internalType": "uint256",
          "name": "",
          "type": "uint256"
        }
      ],
      "stateMutability": "view",
      "type": "function"
    },
    {
      "inputs": [
        {
          "internalType": "uint256",
          "name": "tokenId",
          "type": "uint256"
        }
      ],
      "name": "tokenURI",
      "outputs": [
        {
          "internalType": "string",
          "name": "",
          "type": "string"
        }
      ],
      "stateMutability": "view",
      "type": "function"
    },
    {
      "inputs": [],
      "name": "totalSupply",
      "outputs": [
        {
          "internalType": "uint256",
          "name": "",
          "type": "uint256"
        }
      ],
      "stateMutability": "view",
      "type": "function"
    },
    {
      "inputs": [
        {
          "internalType": "address",
          "name": "from",
          "type": "address"
        },
        {
          "internalType": "address",
          "name": "to",
          "type": "address"
        },
        {
          "internalType": "uint256",
          "name": "tokenId",
          "type": "uint256"
        }
      ],
      "name": "transferFrom",
      "outputs": [],
      "stateMutability": "nonpayable",
      "type": "function"
    },
    {
      "inputs": [
        {
          "internalType": "address",
          "name": "newOwner",
          "type": "address"
        }
      ],
      "name": "transferOwnership",
      "outputs": [],
      "stateMutability": "nonpayable",
      "type": "function"
    }
  ],
  "bytecode": "0x60806040523480156200001157600080fd5b506040518060400160405280600881526020017f48756e67204d616e0000000000000000000000000000000000000000000000008152506040518060400160405280600281526020017f484d00000000000000000000000000000000000000000000000000000000000081525081600090805190602001906200009692919062000179565b508060019080519060200190620000af92919062000179565b5050506001600a819055506000620000cc6200017160201b60201c565b905080600b60006101000a81548173ffffffffffffffffffffffffffffffffffffffff021916908373ffffffffffffffffffffffffffffffffffffffff1602179055508073ffffffffffffffffffffffffffffffffffffffff16600073ffffffffffffffffffffffffffffffffffffffff167f8be0079c531659141344cd1fd0a4f28419497f9722a3daafe3b4186f6b6457e060405160405180910390a3506200028e565b600033905090565b828054620001879062000229565b90600052602060002090601f016020900481019282620001ab5760008555620001f7565b82601f10620001c657805160ff1916838001178555620001f7565b82800160010185558215620001f7579182015b82811115620001f6578251825591602001919060010190620001d9565b5b5090506200020691906200020a565b5090565b5b80821115620002255760008160009055506001016200020b565b5090565b600060028204905060018216806200024257607f821691505b602082108114156200025957620002586200025f565b5b50919050565b7f4e487b7100000000000000000000000000000000000000000000000000000000600052602260045260246000fd5b615ed7806200029e6000396000f3fe608060405234801561001057600080fd5b506004361061014d5760003560e01c80634f6ccce7116100c357806395d89b411161007c57806395d89b41146103b0578063a22cb465146103ce578063b88d4fde146103ea578063c87b56dd14610406578063e985e9c514610436578063f2fde38b146104665761014d565b80634f6ccce7146102c85780636352211e146102f857806370a0823114610328578063715018a6146103585780637e3a50a4146103625780638da5cb5b146103925761014d565b80631fcadc42116101155780631fcadc421461020a57806323b872dd1461023a5780632f745c591461025657806342842e0e14610286578063434f48c4146102a25780634e71d92d146102be5761014d565b806301ffc9a71461015257806306fdde0314610182578063081812fc146101a0578063095ea7b3146101d057806318160ddd146101ec575b600080fd5b61016c600480360381019061016791906138c6565b610482565b60405161017991906149e1565b60405180910390f35b61018a6104fc565b60405161019791906149fc565b60405180910390f35b6101ba60048036038101906101b59190613918565b61058e565b6040516101c7919061497a565b60405180910390f35b6101ea60048036038101906101e5919061388a565b610613565b005b6101f461072b565b6040516102019190614c7e565b60405180910390f35b610224600480360381019061021f9190613918565b610738565b60405161023191906149fc565b60405180910390f35b610254600480360381019061024f9190613784565b61157b565b005b610270600480360381019061026b919061388a565b6115db565b60405161027d9190614c7e565b60405180910390f35b6102a0600480360381019061029b9190613784565b611680565b005b6102bc60048036038101906102b79190613918565b6116a0565b005b6102c66117d7565b005b6102e260048036038101906102dd9190613918565b6118a9565b6040516102ef9190614c7e565b60405180910390f35b610312600480360381019061030d9190613918565b611940565b60405161031f919061497a565b60405180910390f35b610342600480360381019061033d919061371f565b6119f2565b60405161034f9190614c7e565b60405180910390f35b610360611aaa565b005b61037c60048036038101906103779190613918565b611be7565b60405161038991906149fc565b60405180910390f35b61039a611cf4565b6040516103a7919061497a565b60405180910390f35b6103b8611d1e565b6040516103c591906149fc565b60405180910390f35b6103e860048036038101906103e3919061384e565b611db0565b005b61040460048036038101906103ff91906137d3565b611f31565b005b610420600480360381019061041b9190613918565b611f93565b60405161042d91906149fc565b60405180910390f35b610450600480360381019061044b9190613748565b612190565b60405161045d91906149e1565b60405180910390f35b610480600480360381019061047b919061371f565b612224565b005b60007f780e9d63000000000000000000000000000000000000000000000000000000007bffffffffffffffffffffffffffffffffffffffffffffffffffffffff1916827bffffffffffffffffffffffffffffffffffffffffffffffffffffffff191614806104f557506104f4826123d0565b5b9050919050565b60606000805461050b90614f08565b80601f016020809104026020016040519081016040528092919081815260200182805461053790614f08565b80156105845780601f1061055957610100808354040283529160200191610584565b820191906000526020600020905b81548152906001019060200180831161056757829003601f168201915b5050505050905090565b6000610599826124b2565b6105d8576040517f08c379a00000000000000000000000000000000000000000000000000000000081526004016105cf90614b7e565b60405180910390fd5b6004600083815260200190815260200160002060009054906101000a900473ffffffffffffffffffffffffffffffffffffffff169050919050565b600061061e82611940565b90508073ffffffffffffffffffffffffffffffffffffffff168373ffffffffffffffffffffffffffffffffffffffff16141561068f576040517f08c379a000000000000000000000000000000000000000000000000000000000815260040161068690614bfe565b60405180910390fd5b8073ffffffffffffffffffffffffffffffffffffffff166106ae61251e565b73ffffffffffffffffffffffffffffffffffffffff1614806106dd57506106dc816106d761251e565b612190565b5b61071c576040517f08c379a000000000000000000000000000000000000000000000000000000000815260040161071390614afe565b60405180910390fd5b6107268383612526565b505050565b6000600880549050905090565b60606107426135ff565b61074a6135ff565b60405180602001604052806000815250826000600c8110610794577f4e487b7100000000000000000000000000000000000000000000000000000000600052603260045260246000fd5b60200201819052506040518060800160405280604a8152602001615c3f604a9139826001600c81106107ef577f4e487b7100000000000000000000000000000000000000000000000000000000600052603260045260246000fd5b60200201819052506040518060800160405280604981526020016150de60499139826002600c811061084a577f4e487b7100000000000000000000000000000000000000000000000000000000600052603260045260246000fd5b602002018190525060405180610100016040528060de815260200161535d60de9139826003600c81106108a6577f4e487b7100000000000000000000000000000000000000000000000000000000600052603260045260246000fd5b60200201819052506040518060800160405280604881526020016159e560489139826004600c8110610901577f4e487b7100000000000000000000000000000000000000000000000000000000600052603260045260246000fd5b60200201819052506040518060800160405280604b8152602001615c89604b9139826005600c811061095c577f4e487b7100000000000000000000000000000000000000000000000000000000600052603260045260246000fd5b602002018190525060405180608001604052806050815260200161512760509139826006600c81106109b7577f4e487b7100000000000000000000000000000000000000000000000000000000600052603260045260246000fd5b602002018190525060405180610240016040528061020e815260200161543b61020e9139826007600c8110610a15577f4e487b7100000000000000000000000000000000000000000000000000000000600052603260045260246000fd5b60200201819052506040518061020001604052806101ce81526020016158176101ce9139826008600c8110610a73577f4e487b7100000000000000000000000000000000000000000000000000000000600052603260045260246000fd5b60200201819052506040518061020001604052806101ce8152602001615cd46101ce9139826009600c8110610ad1577f4e487b7100000000000000000000000000000000000000000000000000000000600052603260045260246000fd5b60200201819052506040518061020001604052806101d28152602001615a6d6101d2913982600a600c8110610b2f577f4e487b7100000000000000000000000000000000000000000000000000000000600052603260045260246000fd5b60200201819052506040518061020001604052806101ce81526020016156496101ce913982600b600c8110610b8d577f4e487b7100000000000000000000000000000000000000000000000000000000600052603260045260246000fd5b60200201819052506000610bc7610ba3866125df565b604051602001610bb39190614943565b60405160208183030381529060405261278c565b90506000600c82610bd89190614f83565b905060008110610c6457836000600c8110610c1c577f4e487b7100000000000000000000000000000000000000000000000000000000600052603260045260246000fd5b6020020151836000600c8110610c5b577f4e487b7100000000000000000000000000000000000000000000000000000000600052603260045260246000fd5b60200201819052505b60018110610cee57836001600c8110610ca6577f4e487b7100000000000000000000000000000000000000000000000000000000600052603260045260246000fd5b6020020151836001600c8110610ce5577f4e487b7100000000000000000000000000000000000000000000000000000000600052603260045260246000fd5b60200201819052505b60028110610d7857836002600c8110610d30577f4e487b7100000000000000000000000000000000000000000000000000000000600052603260045260246000fd5b6020020151836002600c8110610d6f577f4e487b7100000000000000000000000000000000000000000000000000000000600052603260045260246000fd5b60200201819052505b60038110610e0257836003600c8110610dba577f4e487b7100000000000000000000000000000000000000000000000000000000600052603260045260246000fd5b6020020151836003600c8110610df9577f4e487b7100000000000000000000000000000000000000000000000000000000600052603260045260246000fd5b60200201819052505b60048110610e8c57836004600c8110610e44577f4e487b7100000000000000000000000000000000000000000000000000000000600052603260045260246000fd5b6020020151836004600c8110610e83577f4e487b7100000000000000000000000000000000000000000000000000000000600052603260045260246000fd5b60200201819052505b60058110610f1657836005600c8110610ece577f4e487b7100000000000000000000000000000000000000000000000000000000600052603260045260246000fd5b6020020151836005600c8110610f0d577f4e487b7100000000000000000000000000000000000000000000000000000000600052603260045260246000fd5b60200201819052505b60068110610fa057836006600c8110610f58577f4e487b7100000000000000000000000000000000000000000000000000000000600052603260045260246000fd5b6020020151836006600c8110610f97577f4e487b7100000000000000000000000000000000000000000000000000000000600052603260045260246000fd5b60200201819052505b6007811061102a57836007600c8110610fe2577f4e487b7100000000000000000000000000000000000000000000000000000000600052603260045260246000fd5b6020020151836007600c8110611021577f4e487b7100000000000000000000000000000000000000000000000000000000600052603260045260246000fd5b60200201819052505b600881106110b457836008600c811061106c577f4e487b7100000000000000000000000000000000000000000000000000000000600052603260045260246000fd5b6020020151836008600c81106110ab577f4e487b7100000000000000000000000000000000000000000000000000000000600052603260045260246000fd5b60200201819052505b6009811061113e57836009600c81106110f6577f4e487b7100000000000000000000000000000000000000000000000000000000600052603260045260246000fd5b6020020151836009600c8110611135577f4e487b7100000000000000000000000000000000000000000000000000000000600052603260045260246000fd5b60200201819052505b600a81106111c85783600a600c8110611180577f4e487b7100000000000000000000000000000000000000000000000000000000600052603260045260246000fd5b602002015183600a600c81106111bf577f4e487b7100000000000000000000000000000000000000000000000000000000600052603260045260246000fd5b60200201819052505b600b81106112525783600b600c811061120a577f4e487b7100000000000000000000000000000000000000000000000000000000600052603260045260246000fd5b602002015183600b600c8110611249577f4e487b7100000000000000000000000000000000000000000000000000000000600052603260045260246000fd5b60200201819052505b826000600c811061128c577f4e487b7100000000000000000000000000000000000000000000000000000000600052603260045260246000fd5b6020020151836001600c81106112cb577f4e487b7100000000000000000000000000000000000000000000000000000000600052603260045260246000fd5b6020020151846002600c811061130a577f4e487b7100000000000000000000000000000000000000000000000000000000600052603260045260246000fd5b6020020151856003600c8110611349577f4e487b7100000000000000000000000000000000000000000000000000000000600052603260045260246000fd5b6020020151866004600c8110611388577f4e487b7100000000000000000000000000000000000000000000000000000000600052603260045260246000fd5b6020020151876005600c81106113c7577f4e487b7100000000000000000000000000000000000000000000000000000000600052603260045260246000fd5b6020020151886006600c8110611406577f4e487b7100000000000000000000000000000000000000000000000000000000600052603260045260246000fd5b6020020151896007600c8110611445577f4e487b7100000000000000000000000000000000000000000000000000000000600052603260045260246000fd5b60200201518a6008600c8110611484577f4e487b7100000000000000000000000000000000000000000000000000000000600052603260045260246000fd5b60200201518b6009600c81106114c3577f4e487b7100000000000000000000000000000000000000000000000000000000600052603260045260246000fd5b60200201518c600a600c8110611502577f4e487b7100000000000000000000000000000000000000000000000000000000600052603260045260246000fd5b60200201518d600b600c8110611541577f4e487b7100000000000000000000000000000000000000000000000000000000600052603260045260246000fd5b60200201516040516020016115619c9b9a999897969594939291906147d5565b604051602081830303815290604052945050505050919050565b61158c61158661251e565b826127bf565b6115cb576040517f08c379a00000000000000000000000000000000000000000000000000000000081526004016115c290614c1e565b60405180910390fd5b6115d683838361289d565b505050565b60006115e6836119f2565b8210611627576040517f08c379a000000000000000000000000000000000000000000000000000000000815260040161161e90614a1e565b60405180910390fd5b600660008473ffffffffffffffffffffffffffffffffffffffff1673ffffffffffffffffffffffffffffffffffffffff168152602001908152602001600020600083815260200190815260200160002054905092915050565b61169b83838360405180602001604052806000815250611f31565b505050565b6002600a5414156116e6576040517f08c379a00000000000000000000000000000000000000000000000000000000081526004016116dd90614c5e565b60405180910390fd5b6002600a819055506116f661251e565b73ffffffffffffffffffffffffffffffffffffffff16611714611cf4565b73ffffffffffffffffffffffffffffffffffffffff161461176a576040517f08c379a000000000000000000000000000000000000000000000000000000000815260040161176190614b9e565b60405180910390fd5b6103208111801561177c57506103e981105b6117bb576040517f08c379a00000000000000000000000000000000000000000000000000000000081526004016117b290614bbe565b60405180910390fd5b6117cc6117c6611cf4565b82612af9565b6001600a8190555050565b6002600a54141561181d576040517f08c379a000000000000000000000000000000000000000000000000000000000815260040161181490614c5e565b60405180910390fd5b6002600a819055506000600161183161072b565b61183b9190614d3d565b905060008111801561184e575061032181105b61188d576040517f08c379a000000000000000000000000000000000000000000000000000000000815260040161188490614bbe565b60405180910390fd5b61189e61189861251e565b82612af9565b506001600a81905550565b60006118b361072b565b82106118f4576040517f08c379a00000000000000000000000000000000000000000000000000000000081526004016118eb90614c3e565b60405180910390fd5b6008828154811061192e577f4e487b7100000000000000000000000000000000000000000000000000000000600052603260045260246000fd5b90600052602060002001549050919050565b6000806002600084815260200190815260200160002060009054906101000a900473ffffffffffffffffffffffffffffffffffffffff169050600073ffffffffffffffffffffffffffffffffffffffff168173ffffffffffffffffffffffffffffffffffffffff1614156119e9576040517f08c379a00000000000000000000000000000000000000000000000000000000081526004016119e090614b3e565b60405180910390fd5b80915050919050565b60008073ffffffffffffffffffffffffffffffffffffffff168273ffffffffffffffffffffffffffffffffffffffff161415611a63576040517f08c379a0000000000000000000000000000000000000000000000000000000008152600401611a5a90614b1e565b60405180910390fd5b600360008373ffffffffffffffffffffffffffffffffffffffff1673ffffffffffffffffffffffffffffffffffffffff168152602001908152602001600020549050919050565b611ab261251e565b73ffffffffffffffffffffffffffffffffffffffff16611ad0611cf4565b73ffffffffffffffffffffffffffffffffffffffff1614611b26576040517f08c379a0000000000000000000000000000000000000000000000000000000008152600401611b1d90614b9e565b60405180910390fd5b600073ffffffffffffffffffffffffffffffffffffffff16600b60009054906101000a900473ffffffffffffffffffffffffffffffffffffffff1673ffffffffffffffffffffffffffffffffffffffff167f8be0079c531659141344cd1fd0a4f28419497f9722a3daafe3b4186f6b6457e060405160405180910390a36000600b60006101000a81548173ffffffffffffffffffffffffffffffffffffffff021916908373ffffffffffffffffffffffffffffffffffffffff160217905550565b60606000611c1b611bf7846125df565b604051602001611c0791906148d5565b60405160208183030381529060405261278c565b90506000601582611c2c9190614f83565b9050600060405180602001604052806000815250905060008210611c6b57604051602001611c5990614965565b60405160208183030381529060405290505b6005821115611c9557604051602001611c839061492e565b60405160208183030381529060405290505b600e821115611cbf57604051602001611cad906148f7565b60405160208183030381529060405290505b6013821115611ce957604051602001611cd7906148c0565b60405160208183030381529060405290505b809350505050919050565b6000600b60009054906101000a900473ffffffffffffffffffffffffffffffffffffffff16905090565b606060018054611d2d90614f08565b80601f0160208091040260200160405190810160405280929190818152602001828054611d5990614f08565b8015611da65780601f10611d7b57610100808354040283529160200191611da6565b820191906000526020600020905b815481529060010190602001808311611d8957829003601f168201915b5050505050905090565b611db861251e565b73ffffffffffffffffffffffffffffffffffffffff168273ffffffffffffffffffffffffffffffffffffffff161415611e26576040517f08c379a0000000000000000000000000000000000000000000000000000000008152600401611e1d90614abe565b60405180910390fd5b8060056000611e3361251e565b73ffffffffffffffffffffffffffffffffffffffff1673ffffffffffffffffffffffffffffffffffffffff16815260200190815260200160002060008473ffffffffffffffffffffffffffffffffffffffff1673ffffffffffffffffffffffffffffffffffffffff16815260200190815260200160002060006101000a81548160ff0219169083151502179055508173ffffffffffffffffffffffffffffffffffffffff16611ee061251e565b73ffffffffffffffffffffffffffffffffffffffff167f17307eab39ab6107e8899845ad3d59bd9653f200f220920489ca2b5937696c3183604051611f2591906149e1565b60405180910390a35050565b611f42611f3c61251e565b836127bf565b611f81576040517f08c379a0000000000000000000000000000000000000000000000000000000008152600401611f7890614c1e565b60405180910390fd5b611f8d84848484612b17565b50505050565b60606000611fa083610738565b9050611faa613627565b6040518061022001604052806101e681526020016151776101e6913981600060028110612000577f4e487b7100000000000000000000000000000000000000000000000000000000600052603260045260246000fd5b60200201819052506040518060400160405280600681526020017f3c2f7376673e000000000000000000000000000000000000000000000000000081525081600160028110612078577f4e487b7100000000000000000000000000000000000000000000000000000000600052603260045260246000fd5b60200201819052506000816000600281106120bc577f4e487b7100000000000000000000000000000000000000000000000000000000600052603260045260246000fd5b602002015183836001600281106120fc577f4e487b7100000000000000000000000000000000000000000000000000000000600052603260045260246000fd5b6020020151604051602001612113939291906147a4565b60405160208183030381529060405290506000612160612132876125df565b61213b84612b73565b60405160200161214c92919061487b565b604051602081830303815290604052612b73565b905080604051602001612173919061490c565b604051602081830303815290604052915081945050505050919050565b6000600560008473ffffffffffffffffffffffffffffffffffffffff1673ffffffffffffffffffffffffffffffffffffffff16815260200190815260200160002060008373ffffffffffffffffffffffffffffffffffffffff1673ffffffffffffffffffffffffffffffffffffffff16815260200190815260200160002060009054906101000a900460ff16905092915050565b61222c61251e565b73ffffffffffffffffffffffffffffffffffffffff1661224a611cf4565b73ffffffffffffffffffffffffffffffffffffffff16146122a0576040517f08c379a000000000000000000000000000000000000000000000000000000000815260040161229790614b9e565b60405180910390fd5b600073ffffffffffffffffffffffffffffffffffffffff168173ffffffffffffffffffffffffffffffffffffffff161415612310576040517f08c379a000000000000000000000000000000000000000000000000000000000815260040161230790614a5e565b60405180910390fd5b8073ffffffffffffffffffffffffffffffffffffffff16600b60009054906101000a900473ffffffffffffffffffffffffffffffffffffffff1673ffffffffffffffffffffffffffffffffffffffff167f8be0079c531659141344cd1fd0a4f28419497f9722a3daafe3b4186f6b6457e060405160405180910390a380600b60006101000a81548173ffffffffffffffffffffffffffffffffffffffff021916908373ffffffffffffffffffffffffffffffffffffffff16021790555050565b60007f80ac58cd000000000000000000000000000000000000000000000000000000007bffffffffffffffffffffffffffffffffffffffffffffffffffffffff1916827bffffffffffffffffffffffffffffffffffffffffffffffffffffffff1916148061249b57507f5b5e139f000000000000000000000000000000000000000000000000000000007bffffffffffffffffffffffffffffffffffffffffffffffffffffffff1916827bffffffffffffffffffffffffffffffffffffffffffffffffffffffff1916145b806124ab57506124aa82612d31565b5b9050919050565b60008073ffffffffffffffffffffffffffffffffffffffff166002600084815260200190815260200160002060009054906101000a900473ffffffffffffffffffffffffffffffffffffffff1673ffffffffffffffffffffffffffffffffffffffff1614159050919050565b600033905090565b816004600083815260200190815260200160002060006101000a81548173ffffffffffffffffffffffffffffffffffffffff021916908373ffffffffffffffffffffffffffffffffffffffff160217905550808273ffffffffffffffffffffffffffffffffffffffff1661259983611940565b73ffffffffffffffffffffffffffffffffffffffff167f8c5be1e5ebec7d5bd14f71427d1e84f3dd0314c0f7b2291e5b200ac8c7c3b92560405160405180910390a45050565b60606000821415612627576040518060400160405280600181526020017f30000000000000000000000000000000000000000000000000000000000000008152509050612787565b600082905060005b6000821461265957808061264290614f3a565b915050600a826126529190614d93565b915061262f565b60008167ffffffffffffffff81111561269b577f4e487b7100000000000000000000000000000000000000000000000000000000600052604160045260246000fd5b6040519080825280601f01601f1916602001820160405280156126cd5781602001600182028036833780820191505090505b5090505b60008514612780576001826126e69190614e1e565b9150600a856126f59190614f83565b60306127019190614d3d565b60f81b81838151811061273d577f4e487b7100000000000000000000000000000000000000000000000000000000600052603260045260246000fd5b60200101907effffffffffffffffffffffffffffffffffffffffffffffffffffffffffffff1916908160001a905350600a856127799190614d93565b94506126d1565b8093505050505b919050565b60008160405160200161279f919061478d565b6040516020818303038152906040528051906020012060001c9050919050565b60006127ca826124b2565b612809576040517f08c379a000000000000000000000000000000000000000000000000000000000815260040161280090614ade565b60405180910390fd5b600061281483611940565b90508073ffffffffffffffffffffffffffffffffffffffff168473ffffffffffffffffffffffffffffffffffffffff16148061288357508373ffffffffffffffffffffffffffffffffffffffff1661286b8461058e565b73ffffffffffffffffffffffffffffffffffffffff16145b8061289457506128938185612190565b5b91505092915050565b8273ffffffffffffffffffffffffffffffffffffffff166128bd82611940565b73ffffffffffffffffffffffffffffffffffffffff1614612913576040517f08c379a000000000000000000000000000000000000000000000000000000000815260040161290a90614bde565b60405180910390fd5b600073ffffffffffffffffffffffffffffffffffffffff168273ffffffffffffffffffffffffffffffffffffffff161415612983576040517f08c379a000000000000000000000000000000000000000000000000000000000815260040161297a90614a9e565b60405180910390fd5b61298e838383612d9b565b612999600082612526565b6001600360008573ffffffffffffffffffffffffffffffffffffffff1673ffffffffffffffffffffffffffffffffffffffff16815260200190815260200160002060008282546129e99190614e1e565b925050819055506001600360008473ffffffffffffffffffffffffffffffffffffffff1673ffffffffffffffffffffffffffffffffffffffff1681526020019081526020016000206000828254612a409190614d3d565b92505081905550816002600083815260200190815260200160002060006101000a81548173ffffffffffffffffffffffffffffffffffffffff021916908373ffffffffffffffffffffffffffffffffffffffff160217905550808273ffffffffffffffffffffffffffffffffffffffff168473ffffffffffffffffffffffffffffffffffffffff167fddf252ad1be2c89b69c2b068fc378daa952ba7f163c4a11628f55a4df523b3ef60405160405180910390a4505050565b612b13828260405180602001604052806000815250612eaf565b5050565b612b2284848461289d565b612b2e84848484612f0a565b612b6d576040517f08c379a0000000000000000000000000000000000000000000000000000000008152600401612b6490614a3e565b60405180910390fd5b50505050565b60606000825190506000811415612b9c5760405180602001604052806000815250915050612d2c565b60006003600283612bad9190614d3d565b612bb79190614d93565b6004612bc39190614dc4565b90506000602082612bd49190614d3d565b67ffffffffffffffff811115612c13577f4e487b7100000000000000000000000000000000000000000000000000000000600052604160045260246000fd5b6040519080825280601f01601f191660200182016040528015612c455781602001600182028036833780820191505090505b5090506000604051806060016040528060408152602001615a2d604091399050600181016020830160005b86811015612ce95760038101905062ffffff818a015116603f8160121c168401518060081b905060ff603f83600c1c1686015116810190508060081b905060ff603f8360061c1686015116810190508060081b905060ff603f831686015116810190508060e01b90508084526004840193505050612c70565b506003860660018114612d035760028114612d1357612d1e565b613d3d60f01b6002830352612d1e565b603d60f81b60018303525b508484525050819450505050505b919050565b60007f01ffc9a7000000000000000000000000000000000000000000000000000000007bffffffffffffffffffffffffffffffffffffffffffffffffffffffff1916827bffffffffffffffffffffffffffffffffffffffffffffffffffffffff1916149050919050565b612da68383836130a1565b600073ffffffffffffffffffffffffffffffffffffffff168373ffffffffffffffffffffffffffffffffffffffff161415612de957612de4816130a6565b612e28565b8173ffffffffffffffffffffffffffffffffffffffff168373ffffffffffffffffffffffffffffffffffffffff1614612e2757612e2683826130ef565b5b5b600073ffffffffffffffffffffffffffffffffffffffff168273ffffffffffffffffffffffffffffffffffffffff161415612e6b57612e668161325c565b612eaa565b8273ffffffffffffffffffffffffffffffffffffffff168273ffffffffffffffffffffffffffffffffffffffff1614612ea957612ea8828261339f565b5b5b505050565b612eb9838361341e565b612ec66000848484612f0a565b612f05576040517f08c379a0000000000000000000000000000000000000000000000000000000008152600401612efc90614a3e565b60405180910390fd5b505050565b6000612f2b8473ffffffffffffffffffffffffffffffffffffffff166135ec565b15613094578373ffffffffffffffffffffffffffffffffffffffff1663150b7a02612f5461251e565b8786866040518563ffffffff1660e01b8152600401612f769493929190614995565b602060405180830381600087803b158015612f9057600080fd5b505af1925050508015612fc157506040513d601f19601f82011682018060405250810190612fbe91906138ef565b60015b613044573d8060008114612ff1576040519150601f19603f3d011682016040523d82523d6000602084013e612ff6565b606091505b5060008151141561303c576040517f08c379a000000000000000000000000000000000000000000000000000000000815260040161303390614a3e565b60405180910390fd5b805181602001fd5b63150b7a0260e01b7bffffffffffffffffffffffffffffffffffffffffffffffffffffffff1916817bffffffffffffffffffffffffffffffffffffffffffffffffffffffff191614915050613099565b600190505b949350505050565b505050565b6008805490506009600083815260200190815260200160002081905550600881908060018154018082558091505060019003906000526020600020016000909190919091505550565b600060016130fc846119f2565b6131069190614e1e565b90506000600760008481526020019081526020016000205490508181146131eb576000600660008673ffffffffffffffffffffffffffffffffffffffff1673ffffffffffffffffffffffffffffffffffffffff168152602001908152602001600020600084815260200190815260200160002054905080600660008773ffffffffffffffffffffffffffffffffffffffff1673ffffffffffffffffffffffffffffffffffffffff168152602001908152602001600020600084815260200190815260200160002081905550816007600083815260200190815260200160002081905550505b6007600084815260200190815260200160002060009055600660008573ffffffffffffffffffffffffffffffffffffffff1673ffffffffffffffffffffffffffffffffffffffff16815260200190815260200160002060008381526020019081526020016000206000905550505050565b600060016008805490506132709190614e1e565b90506000600960008481526020019081526020016000205490506000600883815481106132c6577f4e487b7100000000000000000000000000000000000000000000000000000000600052603260045260246000fd5b90600052602060002001549050806008838154811061330e577f4e487b7100000000000000000000000000000000000000000000000000000000600052603260045260246000fd5b906000526020600020018190555081600960008381526020019081526020016000208190555060096000858152602001908152602001600020600090556008805480613383577f4e487b7100000000000000000000000000000000000000000000000000000000600052603160045260246000fd5b6001900381819060005260206000200160009055905550505050565b60006133aa836119f2565b905081600660008573ffffffffffffffffffffffffffffffffffffffff1673ffffffffffffffffffffffffffffffffffffffff168152602001908152602001600020600083815260200190815260200160002081905550806007600084815260200190815260200160002081905550505050565b600073ffffffffffffffffffffffffffffffffffffffff168273ffffffffffffffffffffffffffffffffffffffff16141561348e576040517f08c379a000000000000000000000000000000000000000000000000000000000815260040161348590614b5e565b60405180910390fd5b613497816124b2565b156134d7576040517f08c379a00000000000000000000000000000000000000000000000000000000081526004016134ce90614a7e565b60405180910390fd5b6134e360008383612d9b565b6001600360008473ffffffffffffffffffffffffffffffffffffffff1673ffffffffffffffffffffffffffffffffffffffff16815260200190815260200160002060008282546135339190614d3d565b92505081905550816002600083815260200190815260200160002060006101000a81548173ffffffffffffffffffffffffffffffffffffffff021916908373ffffffffffffffffffffffffffffffffffffffff160217905550808273ffffffffffffffffffffffffffffffffffffffff16600073ffffffffffffffffffffffffffffffffffffffff167fddf252ad1be2c89b69c2b068fc378daa952ba7f163c4a11628f55a4df523b3ef60405160405180910390a45050565b600080823b905060008111915050919050565b604051806101800160405280600c905b606081526020019060019003908161360f5790505090565b60405180604001604052806002905b60608152602001906001900390816136365790505090565b600061366161365c84614cca565b614c99565b90508281526020810184848401111561367957600080fd5b613684848285614ec6565b509392505050565b60008135905061369b81615081565b92915050565b6000813590506136b081615098565b92915050565b6000813590506136c5816150af565b92915050565b6000815190506136da816150af565b92915050565b600082601f8301126136f157600080fd5b813561370184826020860161364e565b91505092915050565b600081359050613719816150c6565b92915050565b60006020828403121561373157600080fd5b600061373f8482850161368c565b91505092915050565b6000806040838503121561375b57600080fd5b60006137698582860161368c565b925050602061377a8582860161368c565b9150509250929050565b60008060006060848603121561379957600080fd5b60006137a78682870161368c565b93505060206137b88682870161368c565b92505060406137c98682870161370a565b9150509250925092565b600080600080608085870312156137e957600080fd5b60006137f78782880161368c565b94505060206138088782880161368c565b93505060406138198782880161370a565b925050606085013567ffffffffffffffff81111561383657600080fd5b613842878288016136e0565b91505092959194509250565b6000806040838503121561386157600080fd5b600061386f8582860161368c565b9250506020613880858286016136a1565b9150509250929050565b6000806040838503121561389d57600080fd5b60006138ab8582860161368c565b92505060206138bc8582860161370a565b9150509250929050565b6000602082840312156138d857600080fd5b60006138e6848285016136b6565b91505092915050565b60006020828403121561390157600080fd5b600061390f848285016136cb565b91505092915050565b60006020828403121561392a57600080fd5b60006139388482850161370a565b91505092915050565b61394a81614e52565b82525050565b61395981614e64565b82525050565b600061396a82614cfa565b6139748185614d10565b9350613984818560208601614ed5565b61398d81615070565b840191505092915050565b60006139a382614d05565b6139ad8185614d21565b93506139bd818560208601614ed5565b6139c681615070565b840191505092915050565b60006139dc82614d05565b6139e68185614d32565b93506139f6818560208601614ed5565b80840191505092915050565b6000613a0f602b83614d21565b91507f455243373231456e756d657261626c653a206f776e657220696e646578206f7560008301527f74206f6620626f756e64730000000000000000000000000000000000000000006020830152604082019050919050565b6000613a75603283614d21565b91507f4552433732313a207472616e7366657220746f206e6f6e20455243373231526560008301527f63656976657220696d706c656d656e74657200000000000000000000000000006020830152604082019050919050565b6000613adb602683614d21565b91507f4f776e61626c653a206e6577206f776e657220697320746865207a65726f206160008301527f64647265737300000000000000000000000000000000000000000000000000006020830152604082019050919050565b6000613b41601c83614d21565b91507f4552433732313a20746f6b656e20616c7265616479206d696e746564000000006000830152602082019050919050565b6000613b81602483614d21565b91507f4552433732313a207472616e7366657220746f20746865207a65726f2061646460008301527f72657373000000000000000000000000000000000000000000000000000000006020830152604082019050919050565b6000613be7601983614d21565b91507f4552433732313a20617070726f766520746f2063616c6c6572000000000000006000830152602082019050919050565b6000613c27602c83614d21565b91507f4552433732313a206f70657261746f7220717565727920666f72206e6f6e657860008301527f697374656e7420746f6b656e00000000000000000000000000000000000000006020830152604082019050919050565b6000613c8d601483614d32565b91507f7b226e616d65223a202248756e67204d616e20230000000000000000000000006000830152601482019050919050565b6000613ccd60ff83614d32565b91507f3c73766720786d6c6e733d22687474703a2f2f7777772e77332e6f72672f323060008301527f30302f73766722207072657365727665417370656374526174696f3d22784d6960208301527f6e594d696e206d656574222076696577426f783d22302030203335302033353060408301527f223e3c7374796c653e2e62617365207b2066696c6c3a20236532643036653b2060608301527f666f6e742d66616d696c793a2073657269663b20666f6e742d73697a653a203160808301527f3470783b207d3c2f7374796c653e3c726563742077696474683d22313030252260a08301527f206865696768743d2231303025222066696c6c3d22626c61636b22202f3e3c7460c08301527f65787420783d2231302220793d2232302220636c6173733d2262617365223e0060e083015260ff82019050919050565b6000613e17603883614d21565b91507f4552433732313a20617070726f76652063616c6c6572206973206e6f74206f7760008301527f6e6572206e6f7220617070726f76656420666f7220616c6c00000000000000006020830152604082019050919050565b6000613e7d602a83614d21565b91507f4552433732313a2062616c616e636520717565727920666f7220746865207a6560008301527f726f2061646472657373000000000000000000000000000000000000000000006020830152604082019050919050565b6000613ee3602983614d21565b91507f4552433732313a206f776e657220717565727920666f72206e6f6e657869737460008301527f656e7420746f6b656e00000000000000000000000000000000000000000000006020830152604082019050919050565b6000613f49600283614d32565b91507f227d0000000000000000000000000000000000000000000000000000000000006000830152600282019050919050565b6000613f89602083614d21565b91507f4552433732313a206d696e7420746f20746865207a65726f20616464726573736000830152602082019050919050565b6000613fc9600883614d32565b91507f524152454c4954590000000000000000000000000000000000000000000000006000830152600882019050919050565b6000614009602c83614d21565b91507f4552433732313a20617070726f76656420717565727920666f72206e6f6e657860008301527f697374656e7420746f6b656e00000000000000000000000000000000000000006020830152604082019050919050565b600061406f602083614d21565b91507f4f776e61626c653a2063616c6c6572206973206e6f7420746865206f776e65726000830152602082019050919050565b60006140af60ff83614d32565b91507f3c73766720786d6c6e733d22687474703a2f2f7777772e77332e6f72672f323060008301527f30302f73766722207072657365727665417370656374526174696f3d22784d6960208301527f6e594d696e206d656574222076696577426f783d22302030203335302033353060408301527f223e3c7374796c653e2e62617365207b2066696c6c3a20626c61636b3b20666f60608301527f6e742d66616d696c793a2073657269663b20666f6e742d73697a653a2031347060808301527f783b207d3c2f7374796c653e3c726563742077696474683d223130302522206860a08301527f65696768743d2231303025222066696c6c3d222365326430366522202f3e3c7460c08301527f65787420783d2231302220793d2232302220636c6173733d2262617365223e0060e083015260ff82019050919050565b60006141f9601083614d21565b91507f546f6b656e20494420696e76616c6964000000000000000000000000000000006000830152602082019050919050565b6000614239602983614d21565b91507f4552433732313a207472616e73666572206f6620746f6b656e2074686174206960008301527f73206e6f74206f776e00000000000000000000000000000000000000000000006020830152604082019050919050565b600061429f602183614d21565b91507f4552433732313a20617070726f76616c20746f2063757272656e74206f776e6560008301527f72000000000000000000000000000000000000000000000000000000000000006020830152604082019050919050565b6000614305601d83614d32565b91507f646174613a6170706c69636174696f6e2f6a736f6e3b6261736536342c0000006000830152601d82019050919050565b6000614345603183614d21565b91507f4552433732313a207472616e736665722063616c6c6572206973206e6f74206f60008301527f776e6572206e6f7220617070726f7665640000000000000000000000000000006020830152604082019050919050565b60006143ab602c83614d21565b91507f455243373231456e756d657261626c653a20676c6f62616c20696e646578206f60008301527f7574206f6620626f756e647300000000000000000000000000000000000000006020830152604082019050919050565b600061441160ff83614d32565b91507f3c73766720786d6c6e733d22687474703a2f2f7777772e77332e6f72672f323060008301527f30302f73766722207072657365727665417370656374526174696f3d22784d6960208301527f6e594d696e206d656574222076696577426f783d22302030203335302033353060408301527f223e3c7374796c653e2e62617365207b2066696c6c3a20626c61636b3b20666f60608301527f6e742d66616d696c793a2073657269663b20666f6e742d73697a653a2031347060808301527f783b207d3c2f7374796c653e3c726563742077696474683d223130302522206860a08301527f65696768743d2231303025222066696c6c3d222363306330633022202f3e3c7460c08301527f65787420783d2231302220793d2232302220636c6173733d2262617365223e0060e083015260ff82019050919050565b600061455b600783614d32565b91507f48756e674d616e000000000000000000000000000000000000000000000000006000830152600782019050919050565b600061459b60fd83614d32565b91507f3c73766720786d6c6e733d22687474703a2f2f7777772e77332e6f72672f323060008301527f30302f73766722207072657365727665417370656374526174696f3d22784d6960208301527f6e594d696e206d656574222076696577426f783d22302030203335302033353060408301527f223e3c7374796c653e2e62617365207b2066696c6c3a20626c61636b3b20666f60608301527f6e742d66616d696c793a2073657269663b20666f6e742d73697a653a2031347060808301527f783b207d3c2f7374796c653e3c726563742077696474683d223130302522206860a08301527f65696768743d2231303025222066696c6c3d22776869746522202f3e3c74657860c08301527f7420783d2231302220793d2232302220636c6173733d2262617365223e00000060e083015260fd82019050919050565b60006146e5601f83614d21565b91507f5265656e7472616e637947756172643a207265656e7472616e742063616c6c006000830152602082019050919050565b6000614725603a83614d32565b91507f222c20226465736372697074696f6e223a2022222c2022696d616765223a202260008301527f646174613a696d6167652f7376672b786d6c3b6261736536342c0000000000006020830152603a82019050919050565b61478781614ebc565b82525050565b600061479982846139d1565b915081905092915050565b60006147b082866139d1565b91506147bc82856139d1565b91506147c882846139d1565b9150819050949350505050565b60006147e1828f6139d1565b91506147ed828e6139d1565b91506147f9828d6139d1565b9150614805828c6139d1565b9150614811828b6139d1565b915061481d828a6139d1565b915061482982896139d1565b915061483582886139d1565b915061484182876139d1565b915061484d82866139d1565b915061485982856139d1565b915061486582846139d1565b91508190509d9c50505050505050505050505050565b600061488682613c80565b915061489282856139d1565b915061489d82614718565b91506148a982846139d1565b91506148b482613f3c565b91508190509392505050565b60006148cb82613cc0565b9150819050919050565b60006148e082613fbc565b91506148ec82846139d1565b915081905092915050565b6000614902826140a2565b9150819050919050565b6000614917826142f8565b915061492382846139d1565b915081905092915050565b600061493982614404565b9150819050919050565b600061494e8261454e565b915061495a82846139d1565b915081905092915050565b60006149708261458e565b9150819050919050565b600060208201905061498f6000830184613941565b92915050565b60006080820190506149aa6000830187613941565b6149b76020830186613941565b6149c4604083018561477e565b81810360608301526149d6818461395f565b905095945050505050565b60006020820190506149f66000830184613950565b92915050565b60006020820190508181036000830152614a168184613998565b905092915050565b60006020820190508181036000830152614a3781613a02565b9050919050565b60006020820190508181036000830152614a5781613a68565b9050919050565b60006020820190508181036000830152614a7781613ace565b9050919050565b60006020820190508181036000830152614a9781613b34565b9050919050565b60006020820190508181036000830152614ab781613b74565b9050919050565b60006020820190508181036000830152614ad781613bda565b9050919050565b60006020820190508181036000830152614af781613c1a565b9050919050565b60006020820190508181036000830152614b1781613e0a565b9050919050565b60006020820190508181036000830152614b3781613e70565b9050919050565b60006020820190508181036000830152614b5781613ed6565b9050919050565b60006020820190508181036000830152614b7781613f7c565b9050919050565b60006020820190508181036000830152614b9781613ffc565b9050919050565b60006020820190508181036000830152614bb781614062565b9050919050565b60006020820190508181036000830152614bd7816141ec565b9050919050565b60006020820190508181036000830152614bf78161422c565b9050919050565b60006020820190508181036000830152614c1781614292565b9050919050565b60006020820190508181036000830152614c3781614338565b9050919050565b60006020820190508181036000830152614c578161439e565b9050919050565b60006020820190508181036000830152614c77816146d8565b9050919050565b6000602082019050614c93600083018461477e565b92915050565b6000604051905081810181811067ffffffffffffffff82111715614cc057614cbf615041565b5b8060405250919050565b600067ffffffffffffffff821115614ce557614ce4615041565b5b601f19601f8301169050602081019050919050565b600081519050919050565b600081519050919050565b600082825260208201905092915050565b600082825260208201905092915050565b600081905092915050565b6000614d4882614ebc565b9150614d5383614ebc565b9250827fffffffffffffffffffffffffffffffffffffffffffffffffffffffffffffffff03821115614d8857614d87614fb4565b5b828201905092915050565b6000614d9e82614ebc565b9150614da983614ebc565b925082614db957614db8614fe3565b5b828204905092915050565b6000614dcf82614ebc565b9150614dda83614ebc565b9250817fffffffffffffffffffffffffffffffffffffffffffffffffffffffffffffffff0483118215151615614e1357614e12614fb4565b5b828202905092915050565b6000614e2982614ebc565b9150614e3483614ebc565b925082821015614e4757614e46614fb4565b5b828203905092915050565b6000614e5d82614e9c565b9050919050565b60008115159050919050565b60007fffffffff0000000000000000000000000000000000000000000000000000000082169050919050565b600073ffffffffffffffffffffffffffffffffffffffff82169050919050565b6000819050919050565b82818337600083830152505050565b60005b83811015614ef3578082015181840152602081019050614ed8565b83811115614f02576000848401525b50505050565b60006002820490506001821680614f2057607f821691505b60208210811415614f3457614f33615012565b5b50919050565b6000614f4582614ebc565b91507fffffffffffffffffffffffffffffffffffffffffffffffffffffffffffffffff821415614f7857614f77614fb4565b5b600182019050919050565b6000614f8e82614ebc565b9150614f9983614ebc565b925082614fa957614fa8614fe3565b5b828206905092915050565b7f4e487b7100000000000000000000000000000000000000000000000000000000600052601160045260246000fd5b7f4e487b7100000000000000000000000000000000000000000000000000000000600052601260045260246000fd5b7f4e487b7100000000000000000000000000000000000000000000000000000000600052602260045260246000fd5b7f4e487b7100000000000000000000000000000000000000000000000000000000600052604160045260246000fd5b6000601f19601f8301169050919050565b61508a81614e52565b811461509557600080fd5b50565b6150a181614e64565b81146150ac57600080fd5b50565b6150b881614e70565b81146150c357600080fd5b50565b6150cf81614ebc565b81146150da57600080fd5b5056fe3c6c696e652078313d223530222079313d223530222078323d223530222079323d2233353022207374726f6b653d22626c61636b22207374726f6b652d77696474683d223322202f3e3c636972636c652063783d22313530222063793d223132352220723d22323522207374726f6b653d22626c61636b22207374726f6b652d77696474683d2233222066696c6c3d22776869746522202f3e3c7376672076657273696f6e3d22312e302220786d6c6e733d22687474703a2f2f7777772e77332e6f72672f323030302f737667222077696474683d22353030707822206865696768743d223530307078222076696577426f783d222d313135202d35302035303020353030223e202020202020202020202020202020202020202020203c6c696e652078313d2230222079313d2230222078323d2230222079323d2234313522207374726f6b653d22626c61636b22207374726f6b652d77696474683d223222202f3e202020202020202020202020202020202020202020203c6c696e652078313d2230222079313d2230222078323d22323730222079323d223022207374726f6b653d22626c61636b22207374726f6b652d77696474683d223222202f3e202020202020202020202020202020202020202020203c6c696e652078313d22323730222079313d2230222078323d22323730222079323d2234313522207374726f6b653d22626c61636b22207374726f6b652d77696474683d223222202f3e202020202020202020202020202020202020202020203c6c696e652078313d2230222079313d22343135222078323d22323730222079323d2234313522207374726f6b653d22626c61636b22207374726f6b652d77696474683d223222202f3e3c6c696e652078313d22313030222079313d223530222078323d223530222079323d2231303022207374726f6b653d22626c61636b22207374726f6b652d77696474683d223322202f3e3c6c696e652078313d223835222079313d22333530222078323d223530222079323d2232363522207374726f6b653d22626c61636b22207374726f6b652d77696474683d223322202f3e3c6c696e652078313d223135222079313d22333530222078323d223530222079323d2232363522207374726f6b653d22626c61636b22207374726f6b652d77696474683d223322202f3e3c706174682069643d22706174683022207669736962696c6974793d2276697369626c6522207374726f6b653d222330303030303022207374726f6b652d77696474683d223322207374726f6b652d6f7061636974793d223122207374726f6b652d6c696e656361703d22726f756e6422207374726f6b652d6c696e656a6f696e3d22726f756e6422207374726f6b652d6461736861727261793d226e6f6e6522206d61726b65722d73746172743d226e6f6e6522206d61726b65722d656e643d226e6f6e65222066696c6c3d226e6f6e65222066696c6c2d72756c653d226576656e6f6464222066696c6c2d6f7061636974793d22312220646174612d6e616d653d2263757276652220646174612d7469746c653d22637572766522206465673d22302220646174612d73773d22312220646174612d677261643d22302220646174612d67726f75703d22302220646174612d656469743d2231222066696c7465723d226e6f6e652220643d224d31323020313930204331323020313638203133332e3520313530203135302031353020433136362e352031353020313830203136382031383020313930204331383020323132203136362e3520323330203135302032333020433133332e352032333020313230203231322031323020313930205a202220646174612d63656e746572783d223135302220646174612d63656e746572793d22313930222f3e3c706174682069643d22706174683622207669736962696c6974793d2276697369626c6522207374726f6b653d222330303030303022207374726f6b652d77696474683d223322207374726f6b652d6f7061636974793d223122207374726f6b652d6c696e656361703d22726f756e6422207374726f6b652d6c696e656a6f696e3d22726f756e6422207374726f6b652d6461736861727261793d226e6f6e6522206d61726b65722d73746172743d226e6f6e6522206d61726b65722d656e643d226e6f6e65222066696c6c3d226e6f6e65222066696c6c2d72756c653d226576656e6f6464222066696c6c2d6f7061636974793d22312220646174612d6e616d653d2263757276652220646174612d7469746c653d22637572766522206465673d22302220646174612d73773d22312220646174612d677261643d22302220646174612d67726f75703d22302220646174612d656469743d2231222066696c7465723d226e6f6e652220643d224d3136362e313132203232342e353536204c3136322e313131203235392e353434204c3135392e313131203236372e343434202220646174612d63656e746572783d223136322e3631352220646174612d63656e746572793d22323436222f3e3c706174682069643d22706174683322207669736962696c6974793d2276697369626c6522207374726f6b653d222330303030303022207374726f6b652d77696474683d223322207374726f6b652d6f7061636974793d223122207374726f6b652d6c696e656361703d22726f756e6422207374726f6b652d6c696e656a6f696e3d22726f756e6422207374726f6b652d6461736861727261793d226e6f6e6522206d61726b65722d73746172743d226e6f6e6522206d61726b65722d656e643d226e6f6e65222066696c6c3d226e6f6e65222066696c6c2d72756c653d226576656e6f6464222066696c6c2d6f7061636974793d22312220646174612d6e616d653d2263757276652220646174612d7469746c653d22637572766522206465673d22302220646174612d73773d22312220646174612d677261643d22302220646174612d67726f75703d22302220646174612d656469743d2231222066696c7465723d226e6f6e652220643d224d313234203137302e313131204c3131342e393738203138342e303739204c3130362e353536203138392e363637202220646174612d63656e746572783d223131352e3237382220646174612d63656e746572793d223137392e383839222f3e3c6c696e652078313d2230222079313d223530222078323d22323730222079323d22353022207374726f6b653d22626c61636b22207374726f6b652d77696474683d223322202f3e4142434445464748494a4b4c4d4e4f505152535455565758595a6162636465666768696a6b6c6d6e6f707172737475767778797a303132333435363738392b2f3c706174682069643d22706174683522207669736962696c6974793d2276697369626c6522207374726f6b653d222330303030303022207374726f6b652d77696474683d223322207374726f6b652d6f7061636974793d223122207374726f6b652d6c696e656361703d22726f756e6422207374726f6b652d6c696e656a6f696e3d22726f756e6422207374726f6b652d6461736861727261793d226e6f6e6522206d61726b65722d73746172743d226e6f6e6522206d61726b65722d656e643d226e6f6e65222066696c6c3d226e6f6e65222066696c6c2d72756c653d226576656e6f6464222066696c6c2d6f7061636974793d22312220646174612d6e616d653d2263757276652220646174612d7469746c653d22637572766522206465673d22302220646174612d73773d22312220646174612d677261643d22302220646174612d67726f75703d22302220646174612d656469743d2231222066696c7465723d226e6f6e652220643d224d3132392e373738203232302e343435204c3133322e353535203234342e383337204c3133382e313131203235332e323232202220646174612d63656e746572783d223133332e3934352220646174612d63656e746572793d223233362e383333222f3e3c6c696e652078313d2230222079313d22333530222078323d22323730222079323d2233353022207374726f6b653d22626c61636b22207374726f6b652d77696474683d223322202f3e3c6c696e652078313d22313530222079313d223530222078323d22313530222079323d2231303022207374726f6b653d22626c61636b22207374726f6b652d77696474683d223322202f3e3c706174682069643d22706174683422207669736962696c6974793d2276697369626c6522207374726f6b653d222330303030303022207374726f6b652d77696474683d223322207374726f6b652d6f7061636974793d223122207374726f6b652d6c696e656361703d22726f756e6422207374726f6b652d6c696e656a6f696e3d22726f756e6422207374726f6b652d6461736861727261793d226e6f6e6522206d61726b65722d73746172743d226e6f6e6522206d61726b65722d656e643d226e6f6e65222066696c6c3d226e6f6e65222066696c6c2d72756c653d226576656e6f6464222066696c6c2d6f7061636974793d22312220646174612d6e616d653d2263757276652220646174612d7469746c653d22637572766522206465673d22302220646174612d73773d22312220646174612d677261643d22302220646174612d67726f75703d22302220646174612d656469743d2231222066696c7465723d226e6f6e652220643d224d3137362e35353620313731204c3138372e333839203138392e353836204c3139362e353535203139312e343435202220646174612d63656e746572783d223138362e3535362220646174612d63656e746572793d223138312e323232222f3ea26469706673582212203b0b64527a3f254c9d5c392e864d80c78862cf1bfa9e249d253223ac16511d6464736f6c63430008000033",
  "linkReferences": {},
  "deployedLinkReferences": {}
}